{
  "contractName": "Auction",
  "abi": [
    {
      "constant": true,
      "inputs": [],
      "name": "rule",
      "outputs": [
        {
          "name": "startingPrice",
          "type": "uint8"
        },
        {
          "name": "minimumStep",
          "type": "uint8"
        }
      ],
      "payable": false,
      "stateMutability": "view",
      "type": "function"
    },
    {
      "constant": true,
      "inputs": [],
      "name": "auctioneer",
      "outputs": [
        {
          "name": "",
          "type": "address"
        }
      ],
      "payable": false,
      "stateMutability": "view",
      "type": "function"
    },
    {
      "constant": true,
      "inputs": [],
      "name": "currentPrice",
      "outputs": [
        {
          "name": "",
          "type": "uint8"
        }
      ],
      "payable": false,
      "stateMutability": "view",
      "type": "function"
    },
    {
      "constant": true,
      "inputs": [],
      "name": "currentWinner",
      "outputs": [
        {
          "name": "",
          "type": "address"
        }
      ],
      "payable": false,
      "stateMutability": "view",
      "type": "function"
    },
    {
      "constant": true,
      "inputs": [],
      "name": "state",
      "outputs": [
        {
          "name": "",
          "type": "uint8"
        }
      ],
      "payable": false,
      "stateMutability": "view",
      "type": "function"
    },
    {
      "constant": true,
      "inputs": [],
      "name": "announcementTimes",
      "outputs": [
        {
          "name": "",
          "type": "uint8"
        }
      ],
      "payable": false,
      "stateMutability": "view",
      "type": "function"
    },
    {
      "constant": true,
      "inputs": [
        {
          "name": "",
          "type": "address"
        }
      ],
      "name": "bidders",
      "outputs": [
        {
          "name": "token",
          "type": "uint8"
        },
        {
          "name": "deposit",
          "type": "uint8"
        }
      ],
      "payable": false,
      "stateMutability": "view",
      "type": "function"
    },
    {
      "inputs": [
        {
          "name": "_startingPrice",
          "type": "uint8"
        },
        {
          "name": "_minimumStep",
          "type": "uint8"
        }
      ],
      "payable": false,
      "stateMutability": "nonpayable",
      "type": "constructor"
    },
    {
      "constant": false,
      "inputs": [
        {
          "name": "_account",
          "type": "address"
        },
        {
          "name": "_token",
          "type": "uint8"
        }
      ],
      "name": "register",
      "outputs": [],
      "payable": false,
      "stateMutability": "nonpayable",
      "type": "function"
    },
    {
      "constant": false,
      "inputs": [],
      "name": "startSession",
      "outputs": [],
      "payable": false,
      "stateMutability": "nonpayable",
      "type": "function"
    },
    {
      "constant": false,
      "inputs": [
        {
          "name": "_price",
          "type": "uint8"
        }
      ],
      "name": "bid",
      "outputs": [],
      "payable": false,
      "stateMutability": "nonpayable",
      "type": "function"
    },
    {
      "constant": false,
      "inputs": [],
      "name": "announce",
      "outputs": [],
      "payable": false,
      "stateMutability": "nonpayable",
      "type": "function"
    },
    {
      "constant": false,
      "inputs": [],
      "name": "getDeposit",
      "outputs": [],
      "payable": false,
      "stateMutability": "nonpayable",
      "type": "function"
    }
  ],
  "bytecode": "0x60806040526000805462ffffff191690556003805460a060020a61ffff021916905534801561002d57600080fd5b50604051604080610b21833981016040528051602090910151600560ff83160660ff1660001480156100685750600560ff82160660ff166000145b151561007357600080fd5b60038054600160a060020a031916331790556001805460ff9283166101000261ff00199390941660ff1990911681179290921692909217909155600080546201000090920262ff000019909216919091179055610a4c806100d56000396000f3006080604052600436106100b95763ffffffff7c010000000000000000000000000000000000000000000000000000000060003504166307e4959881146100be57806325e3d522146100e757806333500e261461011c5780635ec2c7bf146101375780638f970df0146101685780639d1b464a1461017d578063aabe2fe3146101a8578063c19d93fb146101bd578063c399ec88146101f6578063e4f8c1b61461020b578063fcc8f79314610220578063fe0ae16514610241575b600080fd5b3480156100ca57600080fd5b506100e5600160a060020a036004351660ff60243516610256565b005b3480156100f357600080fd5b506100fc610342565b6040805160ff938416815291909216602082015281519081900390910190f35b34801561012857600080fd5b506100e560ff60043516610354565b34801561014357600080fd5b5061014c610648565b60408051600160a060020a039092168252519081900360200190f35b34801561017457600080fd5b506100e5610657565b34801561018957600080fd5b5061019261075c565b6040805160ff9092168252519081900360200190f35b3480156101b457600080fd5b5061014c61076b565b3480156101c957600080fd5b506101d261077a565b604051808260038111156101e257fe5b60ff16815260200191505060405180910390f35b34801561020257600080fd5b506100e5610783565b34801561021757600080fd5b50610192610908565b34801561022c57600080fd5b506100fc600160a060020a0360043516610916565b34801561024d57600080fd5b506100e5610934565b600354600160a060020a031633146102b8576040805160e560020a62461bcd02815260206004820152601e60248201527f4f6e6c792061756374696f6e6565722063616e2063616c6c20746869732e0000604482015290519081900360640190fd5b60008060005460ff1660038111156102cc57fe5b1461030f576040805160e560020a62461bcd02815260206004820152600d6024820152600080516020610a01833981519152604482015290519081900360640190fd5b50600160a060020a03919091166000908152600460205260409020805460ff191660ff9092169190911761ff0019169055565b60015460ff8082169161010090041682565b60008060018060005460ff16600381111561036b57fe5b146103ae576040805160e560020a62461bcd02815260206004820152600d6024820152600080516020610a01833981519152604482015290519081900360640190fd5b33600081815260046020526040812060015491549295509350610100900460ff9081166201000090920481169190910181169085161015610439576040805160e560020a62461bcd02815260206004820152600d60248201527f707269636520696e76616c696400000000000000000000000000000000000000604482015290519081900360640190fd5b3360009081526004602052604090205460ff808616911610156104cc576040805160e560020a62461bcd02815260206004820152602160248201527f796f7520646f6e74206861766520656e6f75676820746f6b656e20746f20626960448201527f6400000000000000000000000000000000000000000000000000000000000000606482015290519081900360840190fd5b60015460005462010000900460ff9081169116141561055d5781546001546000546003805461ffff74010000000000000000000000000000000000000000808304821660ff610100909804881696881662010000909604881695909503959095039095169290920190931690910275ffff0000000000000000000000000000000000000000199091161790556105c7565b81546000546003805461ffff74010000000000000000000000000000000000000000808304821660ff6101009097048716620100009096048716959095039095169390930190921690920275ffff0000000000000000000000000000000000000000199091161790555b50805460ff84811661010081810261ff001991850484169097038385160390921660ff19909316929092178116949094179091556000805460028054600160a060020a0390951673ffffffffffffffffffffffffffffffffffffffff19909516949094179093556201000090910262ff000019909216919091179091169055565b600354600160a060020a031681565b600354600160a060020a031633146106b9576040805160e560020a62461bcd02815260206004820152601e60248201527f4f6e6c792061756374696f6e6565722063616e2063616c6c20746869732e0000604482015290519081900360640190fd5b60018060005460ff1660038111156106cd57fe5b14610710576040805160e560020a62461bcd02815260206004820152600d6024820152600080516020610a01833981519152604482015290519081900360640190fd5b6000805460ff61010080830482166001018216810261ff00199093169290921792839055600391909204909116111561075957600080546002919060ff19166001835b02179055505b50565b60005462010000900460ff1681565b600254600160a060020a031681565b60005460ff1681565b60028060005460ff16600381111561079757fe5b146107da576040805160e560020a62461bcd02815260206004820152600d6024820152600080516020610a01833981519152604482015290519081900360640190fd5b600254600160a060020a0316331415610863576040805160e560020a62461bcd02815260206004820152602560248201527f77696e6e65722063616e206e6f7420776974686472617720746865697220646560448201527f706f736974000000000000000000000000000000000000000000000000000000606482015290519081900360840190fd5b33600090815260046020526040812080546003805475ffff00000000000000000000000000000000000000001981166101009384900460ff908116740100000000000000000000000000000000000000009384900461ffff9081169190910381168402929092178455855460ff198116958104821690821601169390931761ff0019169093555491909104161161075957600080546003919060ff1916600183610753565b600054610100900460ff1681565b60046020526000908152604090205460ff8082169161010090041682565b600354600160a060020a03163314610996576040805160e560020a62461bcd02815260206004820152601e60248201527f4f6e6c792061756374696f6e6565722063616e2063616c6c20746869732e0000604482015290519081900360640190fd5b60008060005460ff1660038111156109aa57fe5b146109ed576040805160e560020a62461bcd02815260206004820152600d6024820152600080516020610a01833981519152604482015290519081900360640190fd5b600080546001919060ff191682806107535600696e76616c696420737461746500000000000000000000000000000000000000a165627a7a723058209ae27dfd9b1bbbc17a5537dba57a59a8d29e82b6461cc0862baa3a81e31ca8250029",
  "source": "pragma solidity ^0.4.17;\r\n\r\ncontract Auction {\r\n    \r\n    // Data\r\n    \r\n    // Structure to hold details of Bidder\r\n    struct IBidder {\r\n        uint8 token;\r\n        uint8 deposit;\r\n    }\r\n    \r\n    // Structure to hold details of Rule\r\n    struct IRule {\r\n        uint8 startingPrice;\r\n        uint8 minimumStep;\r\n    }\r\n    \r\n    \r\n    // State Enum to define Auction's state\r\n    enum State { CREATED, STARTED, CLOSING, CLOSED }\r\n    \r\n    State public state = State.CREATED; // State of Auction\r\n    \r\n    uint8 public announcementTimes = 0; // Number of announcements\r\n    uint8 public currentPrice = 0; // Latest price is bid.\r\n    IRule public rule; // Rule of this session\r\n    address public currentWinner; // Current Winner, who bid the highest price.\r\n    address public auctioneer;\r\n    \r\n    uint16 private totalDeposit = 0;\r\n    \r\n    mapping(address => IBidder) public bidders; // Mapping to hold bidders' information\r\n\r\n    //modify\r\n    modifier inState(State _state){\r\n        require(state == _state, \"invalid state\");\r\n        _;\r\n\r\n    }\r\n    modifier onlyAuctioneer() {\r\n        require(\r\n            msg.sender == auctioneer,\r\n            \"Only auctioneer can call this.\"\r\n        );\r\n        _;\r\n    }\r\n\r\n    \r\n    constructor(uint8 _startingPrice, uint8 _minimumStep) public {\r\n        \r\n        // Task #1 - Initialize the Smart contract\r\n        // + Initialize Auctioneer with address of smart contract's owner\r\n        // + Set the starting price & minimumStep\r\n        // + Set the current price as the Starting price\r\n        \r\n        \r\n        // ** Start code here. 4 lines approximately. ** /\r\n        require(_startingPrice % 5 == 0 && _minimumStep % 5 == 0);\r\n        auctioneer = msg.sender;\r\n        rule.startingPrice = _startingPrice;\r\n        rule.minimumStep = _minimumStep;\r\n        currentPrice = _startingPrice;\r\n\r\n        // ** End code here. ** /\r\n    }\r\n    \r\n    \r\n    // Register new Bidder\r\n    function register(address _account, uint8 _token) public onlyAuctioneer() inState(State.CREATED){ \r\n        \r\n                \r\n        // Task #2 - Register the bidder\r\n        // + Initialize a Bidder with address and token are given.\r\n        // + Initialize a Bidder's deposit with 0\r\n        \r\n        \r\n        // ** Start code here. 3 lines approximately. ** /\r\n        bidders[_account].token = _token;\r\n        bidders[_account].deposit = 0;      \r\n\r\n\t   // ** End code here. **/\r\n    }\r\n\r\n    \r\n    // Start the session.\r\n    function startSession() public onlyAuctioneer() inState(State.CREATED){\r\n        state = State.STARTED;\r\n    }\r\n    \r\n\r\n    \r\n    function bid(uint8 _price) public inState(State.STARTED){\r\n        \r\n        // Task #3 - Bid by Bidders\r\n        // + Check the price with currentPirce and minimumStep. Revert if invalid.\r\n        // + Check if the Bidder has enough token to bid. Revert if invalid.\r\n        // + Move token to Deposit.\r\n        \r\n        address bidderAddr = msg.sender;\r\n        IBidder storage currentBidder = bidders[bidderAddr];\r\n        \r\n        // ** Start code here.  ** /\r\n        if(_price < (currentPrice + rule.minimumStep)){\r\n            revert(\"price invalid\");\r\n        } \r\n        if(bidders[msg.sender].token < _price){\r\n            revert(\"you dont have enough token to bid\");\r\n        } \r\n        // Tracking deposit\r\n        if(currentPrice == rule.startingPrice){\r\n            totalDeposit += (currentPrice - rule.startingPrice - currentBidder.deposit);\r\n        }else{\r\n            totalDeposit += (currentPrice - currentBidder.deposit);\r\n        }\r\n\t\t\r\n        currentBidder.token -= (_price - currentBidder.deposit);\r\n        currentBidder.deposit = _price;\r\n        \r\n        // ** End code here. **/\r\n        \r\n\r\n        \r\n        // Update the price and the winner after this bid.\r\n        currentPrice = _price;\r\n        currentWinner = bidderAddr;\r\n        \r\n        // Reset the Annoucements Counter\r\n        announcementTimes = 0;\r\n    }\r\n    \r\n    function announce() public onlyAuctioneer() inState(State.STARTED){\r\n        \r\n        // Task #4 - Handle announcement.\r\n        // + When Auctioneer annouce, increase the counter.\r\n        // + When Auctioneer annouced more than 3 times, switch session to Closing state.\r\n        \r\n        // ** Start code here.  ** /\r\n        announcementTimes += 1;\r\n        if(announcementTimes > 3){\r\n            state = State.CLOSING; \r\n        }\r\n\t   \r\n        // ** End code here. **/\r\n    }\r\n    \r\n    function getDeposit() public inState(State.CLOSING){\r\n        \r\n        // Task #5 - Handle get Deposit.\r\n        // + Allow bidders (except Winner) to withdraw their deposit \r\n\t\t// + When all bidders' deposit are withdrew, close the session \r\n        \r\n        // ** Start code here.  ** /\r\n        // HINT: Remember to decrease totalDeposit.\r\n        require(msg.sender != currentWinner, \"winner can not withdraw their deposit\");\r\n        totalDeposit -= bidders[msg.sender].deposit;    \r\n        bidders[msg.sender].token += bidders[msg.sender].deposit;\r\n        bidders[msg.sender].deposit = 0;       \r\n        \r\n         \r\n       // ** End code here ** /\r\n       \r\n       if (totalDeposit <= 0) {\r\n           state = State.CLOSED;\r\n       }\r\n    }\r\n}\r\n\r\n\r\n\r\n\r\n// PART 2 - Using Modifier to:\r\n// - Check if the action (startSession, register, bid, annoucement, getDeposit) can be done in current State.\r\n// - Check if the current user can do the action.\r\n\r\n",
  "sourcePath": "C:\\Users\\LAM\\Desktop\\Funix  ASM tổng hợp\\FUNiX - BDP303x_1.1-A_VN\\BDP303x_asm3_lamntFX14833@funix.edu.vn\\contracts\\Auction.sol",
  "compiler": {
    "name": "solc",
    "version": "0.4.26+commit.4563c3fc.Emscripten.clang"
  },
  "schemaVersion": "3.4.11",
  "updatedAt": "2023-04-05T19:54:09.115Z",
  "networkType": "ethereum",
  "devdoc": {
    "methods": {}
  },
  "userdoc": {
    "methods": {}
  }
}